{
  "_format": "hh-sol-artifact-1",
  "contractName": "EventWise",
  "sourceName": "contracts/EventWise.sol",
  "abi": [
    {
      "inputs": [
        {
          "internalType": "address",
          "name": "_token",
          "type": "address"
        }
      ],
      "stateMutability": "nonpayable",
      "type": "constructor"
    },
    {
      "anonymous": false,
      "inputs": [
        {
          "indexed": true,
          "internalType": "bytes32",
          "name": "id",
          "type": "bytes32"
        }
      ],
      "name": "ChainlinkCancelled",
      "type": "event"
    },
    {
      "anonymous": false,
      "inputs": [
        {
          "indexed": true,
          "internalType": "bytes32",
          "name": "id",
          "type": "bytes32"
        }
      ],
      "name": "ChainlinkFulfilled",
      "type": "event"
    },
    {
      "anonymous": false,
      "inputs": [
        {
          "indexed": true,
          "internalType": "bytes32",
          "name": "id",
          "type": "bytes32"
        }
      ],
      "name": "ChainlinkRequested",
      "type": "event"
    },
    {
      "anonymous": false,
      "inputs": [
        {
          "indexed": true,
          "internalType": "address",
          "name": "user",
          "type": "address"
        },
        {
          "indexed": true,
          "internalType": "uint256",
          "name": "eventId",
          "type": "uint256"
        },
        {
          "indexed": false,
          "internalType": "uint256",
          "name": "date",
          "type": "uint256"
        }
      ],
      "name": "ClaimCompleted",
      "type": "event"
    },
    {
      "anonymous": false,
      "inputs": [
        {
          "indexed": true,
          "internalType": "address",
          "name": "user",
          "type": "address"
        },
        {
          "indexed": true,
          "internalType": "uint256",
          "name": "eventId",
          "type": "uint256"
        },
        {
          "indexed": false,
          "internalType": "uint256",
          "name": "date",
          "type": "uint256"
        }
      ],
      "name": "ClaimFulfilled",
      "type": "event"
    },
    {
      "anonymous": false,
      "inputs": [
        {
          "indexed": true,
          "internalType": "address",
          "name": "user",
          "type": "address"
        },
        {
          "indexed": true,
          "internalType": "uint256",
          "name": "eventId",
          "type": "uint256"
        },
        {
          "indexed": false,
          "internalType": "uint256",
          "name": "date",
          "type": "uint256"
        },
        {
          "indexed": false,
          "internalType": "bytes32",
          "name": "requestId",
          "type": "bytes32"
        },
        {
          "indexed": false,
          "internalType": "string",
          "name": "reason",
          "type": "string"
        }
      ],
      "name": "ClaimInitiated",
      "type": "event"
    },
    {
      "anonymous": false,
      "inputs": [
        {
          "indexed": true,
          "internalType": "address",
          "name": "user",
          "type": "address"
        },
        {
          "indexed": true,
          "internalType": "uint256",
          "name": "eventId",
          "type": "uint256"
        }
      ],
      "name": "EventCreated",
      "type": "event"
    },
    {
      "anonymous": false,
      "inputs": [
        {
          "indexed": true,
          "internalType": "address",
          "name": "previousOwner",
          "type": "address"
        },
        {
          "indexed": true,
          "internalType": "address",
          "name": "newOwner",
          "type": "address"
        }
      ],
      "name": "OwnershipTransferred",
      "type": "event"
    },
    {
      "anonymous": false,
      "inputs": [
        {
          "indexed": true,
          "internalType": "address",
          "name": "user",
          "type": "address"
        },
        {
          "indexed": false,
          "internalType": "uint256",
          "name": "premium",
          "type": "uint256"
        },
        {
          "indexed": false,
          "internalType": "uint256",
          "name": "date",
          "type": "uint256"
        }
      ],
      "name": "PolicyCreated",
      "type": "event"
    },
    {
      "anonymous": false,
      "inputs": [
        {
          "indexed": true,
          "internalType": "address",
          "name": "user",
          "type": "address"
        },
        {
          "indexed": false,
          "internalType": "uint256",
          "name": "amount",
          "type": "uint256"
        },
        {
          "indexed": false,
          "internalType": "uint256",
          "name": "date",
          "type": "uint256"
        }
      ],
      "name": "PremiumPaid",
      "type": "event"
    },
    {
      "inputs": [
        {
          "internalType": "address",
          "name": "",
          "type": "address"
        },
        {
          "internalType": "uint256",
          "name": "",
          "type": "uint256"
        }
      ],
      "name": "Claims",
      "outputs": [
        {
          "internalType": "enum EventWise.Status",
          "name": "status",
          "type": "uint8"
        },
        {
          "internalType": "uint256",
          "name": "weatherCondition",
          "type": "uint256"
        },
        {
          "internalType": "bool",
          "name": "isExists",
          "type": "bool"
        }
      ],
      "stateMutability": "view",
      "type": "function"
    },
    {
      "inputs": [
        {
          "internalType": "address",
          "name": "",
          "type": "address"
        },
        {
          "internalType": "uint256",
          "name": "",
          "type": "uint256"
        }
      ],
      "name": "Events",
      "outputs": [
        {
          "internalType": "string",
          "name": "name",
          "type": "string"
        },
        {
          "internalType": "string",
          "name": "latitude",
          "type": "string"
        },
        {
          "internalType": "string",
          "name": "longitude",
          "type": "string"
        },
        {
          "internalType": "uint256",
          "name": "cost",
          "type": "uint256"
        },
        {
          "internalType": "uint256",
          "name": "date",
          "type": "uint256"
        },
        {
          "internalType": "bool",
          "name": "isExists",
          "type": "bool"
        }
      ],
      "stateMutability": "view",
      "type": "function"
    },
    {
      "inputs": [
        {
          "internalType": "address",
          "name": "",
          "type": "address"
        }
      ],
      "name": "InsurancePolicy",
      "outputs": [
        {
          "internalType": "uint256",
          "name": "avgEventCost",
          "type": "uint256"
        },
        {
          "internalType": "uint256",
          "name": "premiumAmount",
          "type": "uint256"
        },
        {
          "internalType": "bool",
          "name": "isExists",
          "type": "bool"
        }
      ],
      "stateMutability": "view",
      "type": "function"
    },
    {
      "inputs": [
        {
          "internalType": "bytes32",
          "name": "",
          "type": "bytes32"
        }
      ],
      "name": "Requests",
      "outputs": [
        {
          "internalType": "address",
          "name": "user",
          "type": "address"
        },
        {
          "internalType": "uint256",
          "name": "eventId",
          "type": "uint256"
        }
      ],
      "stateMutability": "view",
      "type": "function"
    },
    {
      "inputs": [
        {
          "internalType": "uint256",
          "name": "eventId",
          "type": "uint256"
        }
      ],
      "name": "completeClaim",
      "outputs": [],
      "stateMutability": "nonpayable",
      "type": "function"
    },
    {
      "inputs": [
        {
          "internalType": "string",
          "name": "name",
          "type": "string"
        },
        {
          "internalType": "string",
          "name": "latitude",
          "type": "string"
        },
        {
          "internalType": "string",
          "name": "longitude",
          "type": "string"
        },
        {
          "internalType": "uint256",
          "name": "cost",
          "type": "uint256"
        },
        {
          "internalType": "uint256",
          "name": "date",
          "type": "uint256"
        }
      ],
      "name": "createEvent",
      "outputs": [],
      "stateMutability": "nonpayable",
      "type": "function"
    },
    {
      "inputs": [
        {
          "internalType": "uint256",
          "name": "_avgEventCost",
          "type": "uint256"
        }
      ],
      "name": "createPolicy",
      "outputs": [],
      "stateMutability": "nonpayable",
      "type": "function"
    },
    {
      "inputs": [
        {
          "internalType": "bytes32",
          "name": "_requestId",
          "type": "bytes32"
        },
        {
          "internalType": "uint256",
          "name": "_rainfall",
          "type": "uint256"
        }
      ],
      "name": "fulfill",
      "outputs": [],
      "stateMutability": "nonpayable",
      "type": "function"
    },
    {
      "inputs": [
        {
          "internalType": "uint256",
          "name": "eventId",
          "type": "uint256"
        },
        {
          "internalType": "string",
          "name": "reason",
          "type": "string"
        }
      ],
      "name": "initiateClaim",
      "outputs": [],
      "stateMutability": "nonpayable",
      "type": "function"
    },
    {
      "inputs": [
        {
          "internalType": "address",
          "name": "",
          "type": "address"
        }
      ],
      "name": "latestEventId",
      "outputs": [
        {
          "internalType": "uint256",
          "name": "",
          "type": "uint256"
        }
      ],
      "stateMutability": "view",
      "type": "function"
    },
    {
      "inputs": [],
      "name": "owner",
      "outputs": [
        {
          "internalType": "address",
          "name": "",
          "type": "address"
        }
      ],
      "stateMutability": "view",
      "type": "function"
    },
    {
      "inputs": [],
      "name": "payPremium",
      "outputs": [],
      "stateMutability": "nonpayable",
      "type": "function"
    },
    {
      "inputs": [],
      "name": "renounceOwnership",
      "outputs": [],
      "stateMutability": "nonpayable",
      "type": "function"
    },
    {
      "inputs": [
        {
          "internalType": "uint256",
          "name": "_feeInHundredthsOfLink",
          "type": "uint256"
        }
      ],
      "name": "setFeeInHundredthsOfLink",
      "outputs": [],
      "stateMutability": "nonpayable",
      "type": "function"
    },
    {
      "inputs": [
        {
          "internalType": "uint256",
          "name": "_feeInJuels",
          "type": "uint256"
        }
      ],
      "name": "setFeeInJuels",
      "outputs": [],
      "stateMutability": "nonpayable",
      "type": "function"
    },
    {
      "inputs": [
        {
          "internalType": "string",
          "name": "_jobId",
          "type": "string"
        }
      ],
      "name": "setJobId",
      "outputs": [],
      "stateMutability": "nonpayable",
      "type": "function"
    },
    {
      "inputs": [],
      "name": "token",
      "outputs": [
        {
          "internalType": "contract IERC20",
          "name": "",
          "type": "address"
        }
      ],
      "stateMutability": "view",
      "type": "function"
    },
    {
      "inputs": [
        {
          "internalType": "address",
          "name": "newOwner",
          "type": "address"
        }
      ],
      "name": "transferOwnership",
      "outputs": [],
      "stateMutability": "nonpayable",
      "type": "function"
    }
  ],
  "bytecode": "0x608060405260016005553480156200001657600080fd5b50604051620049d5380380620049d583398181016040528101906200003c9190620003f1565b6200005c620000506200014660201b60201c565b6200014e60201b60201c565b80600960006101000a81548173ffffffffffffffffffffffffffffffffffffffff021916908373ffffffffffffffffffffffffffffffffffffffff160217905550620000c273779877a7b0d9e8603169ddbd7836e478b46247896200021260201b60201c565b620000e7730facf846af22bce1c7f88d1d55a038f27747ed2b6200025660201b60201c565b6200012d6040518060400160405280602081526020017f61383335366634383536396334333465616134616335666362346462356363308152506200029a60201b60201c565b6200013f6000620002bf60201b60201c565b50620006b3565b600033905090565b60008060009054906101000a900473ffffffffffffffffffffffffffffffffffffffff169050816000806101000a81548173ffffffffffffffffffffffffffffffffffffffff021916908373ffffffffffffffffffffffffffffffffffffffff1602179055508173ffffffffffffffffffffffffffffffffffffffff168173ffffffffffffffffffffffffffffffffffffffff167f8be0079c531659141344cd1fd0a4f28419497f9722a3daafe3b4186f6b6457e060405160405180910390a35050565b80600360006101000a81548173ffffffffffffffffffffffffffffffffffffffff021916908373ffffffffffffffffffffffffffffffffffffffff16021790555050565b80600460006101000a81548173ffffffffffffffffffffffffffffffffffffffff021916908373ffffffffffffffffffffffffffffffffffffffff16021790555050565b620002aa6200030660201b60201c565b80620002b69062000579565b60078190555050565b620002cf6200030660201b60201c565b620003036064670de0b6b3a764000083620002eb9190620004d0565b620002f7919062000498565b6200039760201b60201c565b50565b620003166200014660201b60201c565b73ffffffffffffffffffffffffffffffffffffffff166200033c620003b160201b60201c565b73ffffffffffffffffffffffffffffffffffffffff161462000395576040517f08c379a00000000000000000000000000000000000000000000000000000000081526004016200038c906200044a565b60405180910390fd5b565b620003a76200030660201b60201c565b8060088190555050565b60008060009054906101000a900473ffffffffffffffffffffffffffffffffffffffff16905090565b600081519050620003eb8162000699565b92915050565b6000602082840312156200040a57620004096200065e565b5b60006200041a84828501620003da565b91505092915050565b60006200043260208362000487565b91506200043f8262000670565b602082019050919050565b60006020820190508181036000830152620004658162000423565b9050919050565b6000819050602082019050919050565b600081519050919050565b600082825260208201905092915050565b6000620004a5826200056f565b9150620004b2836200056f565b925082620004c557620004c462000618565b5b828204905092915050565b6000620004dd826200056f565b9150620004ea836200056f565b9250817fffffffffffffffffffffffffffffffffffffffffffffffffffffffffffffffff0483118215151615620005265762000525620005e9565b5b828202905092915050565b60006200053e826200054f565b9050919050565b6000819050919050565b600073ffffffffffffffffffffffffffffffffffffffff82169050919050565b6000819050919050565b600062000586826200047c565b8262000592846200046c565b90506200059f8162000647565b92506020821015620005e257620005dd7fffffffffffffffffffffffffffffffffffffffffffffffffffffffffffffffff8360200360080262000663565b831692505b5050919050565b7f4e487b7100000000000000000000000000000000000000000000000000000000600052601160045260246000fd5b7f4e487b7100000000000000000000000000000000000000000000000000000000600052601260045260246000fd5b600062000655825162000545565b80915050919050565b600080fd5b600082821b905092915050565b7f4f776e61626c653a2063616c6c6572206973206e6f7420746865206f776e6572600082015250565b620006a48162000531565b8114620006b057600080fd5b50565b61431280620006c36000396000f3fe608060405234801561001057600080fd5b50600436106101165760003560e01c8063b2081339116100a2578063eb99640811610071578063eb996408146102bd578063f2fde38b146102ef578063f34473a51461030b578063f5f00d8414610327578063fc0c546a1461034357610116565b8063b20813391461021e578063bdc9317d14610253578063c88fae5b1461026f578063e3da201d146102a157610116565b80632a36614c116100e95780632a36614c1461018e5780634357855e146101aa578063715018a6146101c657806387ff0e1e146101d05780638da5cb5b1461020057610116565b8063012b173d1461011b57806304bd12bb1461014c578063129fc1c01461016857806329c08ba214610184575b600080fd5b61013560048036038101906101309190612d23565b610361565b6040516101439291906133a7565b60405180910390f35b61016660048036038101906101619190612ea8565b6103a5565b005b610182600480360381019061017d9190612d90565b6104f4565b005b61018c61050f565b005b6101a860048036038101906101a39190612ea8565b6105f8565b005b6101c460048036038101906101bf9190612d50565b610af6565b005b6101ce610d3a565b005b6101ea60048036038101906101e59190612c89565b610d4e565b6040516101f791906136ce565b60405180910390f35b610208610d66565b6040516102159190613355565b60405180910390f35b61023860048036038101906102339190612cb6565b610d8f565b60405161024a969594939291906134f8565b60405180910390f35b61026d60048036038101906102689190612f02565b610f7d565b005b61028960048036038101906102849190612cb6565b611442565b6040516102989392919061349f565b60405180910390f35b6102bb60048036038101906102b69190612ea8565b611493565b005b6102d760048036038101906102d29190612c89565b6114a5565b6040516102e693929190613750565b60405180910390f35b61030960048036038101906103049190612c89565b6114dc565b005b61032560048036038101906103209190612ea8565b611560565b005b610341600480360381019061033c9190612dd9565b611593565b005b61034b61162b565b6040516103589190613484565b60405180910390f35b600c6020528060005260406000206000915090508060000160009054906101000a900473ffffffffffffffffffffffffffffffffffffffff16908060010154905082565b600081116103e8576040517f08c379a00000000000000000000000000000000000000000000000000000000081526004016103df906135ae565b60405180910390fd5b6000606461040060028461165190919063ffffffff16565b61040a9190613891565b9050604051806060016040528083815260200182815260200160011515815250600a60003373ffffffffffffffffffffffffffffffffffffffff1673ffffffffffffffffffffffffffffffffffffffff168152602001908152602001600020600082015181600001556020820151816001015560408201518160020160006101000a81548160ff0219169083151502179055509050503373ffffffffffffffffffffffffffffffffffffffff167f93aceb1c5e55aa194781a0423a101b97efa4a051e8d2fc2ba332ca75f4e4b6a782426040516104e8929190613727565b60405180910390a25050565b6104fc611667565b8061050690613bf0565b60078190555050565b6000600a60003373ffffffffffffffffffffffffffffffffffffffff1673ffffffffffffffffffffffffffffffffffffffff1681526020019081526020016000206001015490506105a5333083600960009054906101000a900473ffffffffffffffffffffffffffffffffffffffff1673ffffffffffffffffffffffffffffffffffffffff166116e5909392919063ffffffff16565b3373ffffffffffffffffffffffffffffffffffffffff167f395bd21029ce552d1941c174d800a5599c4b1b28887cc9b9eea83c5409da93ef82426040516105ed929190613727565b60405180910390a250565b6000600d60003373ffffffffffffffffffffffffffffffffffffffff1673ffffffffffffffffffffffffffffffffffffffff16815260200190815260200160002060008381526020019081526020016000206040518060c001604052908160008201805461066590613cf3565b80601f016020809104026020016040519081016040528092919081815260200182805461069190613cf3565b80156106de5780601f106106b3576101008083540402835291602001916106de565b820191906000526020600020905b8154815290600101906020018083116106c157829003601f168201915b505050505081526020016001820180546106f790613cf3565b80601f016020809104026020016040519081016040528092919081815260200182805461072390613cf3565b80156107705780601f1061074557610100808354040283529160200191610770565b820191906000526020600020905b81548152906001019060200180831161075357829003601f168201915b5050505050815260200160028201805461078990613cf3565b80601f01602080910402602001604051908101604052809291908181526020018280546107b590613cf3565b80156108025780601f106107d757610100808354040283529160200191610802565b820191906000526020600020905b8154815290600101906020018083116107e557829003601f168201915b5050505050815260200160038201548152602001600482015481526020016005820160009054906101000a900460ff16151515158152505090508060600151600960009054906101000a900473ffffffffffffffffffffffffffffffffffffffff1673ffffffffffffffffffffffffffffffffffffffff166370a08231306040518263ffffffff1660e01b815260040161089c9190613355565b60206040518083038186803b1580156108b457600080fd5b505afa1580156108c8573d6000803e3d6000fd5b505050506040513d601f19601f820116820180604052508101906108ec9190612ed5565b1161092c576040517f08c379a00000000000000000000000000000000000000000000000000000000081526004016109239061356e565b60405180910390fd5b6000600e60003373ffffffffffffffffffffffffffffffffffffffff1673ffffffffffffffffffffffffffffffffffffffff1681526020019081526020016000206000848152602001908152602001600020905060018081111561099357610992613e13565b5b8160000160009054906101000a900460ff1660018111156109b7576109b6613e13565b5b14156109f8576040517f08c379a00000000000000000000000000000000000000000000000000000000081526004016109ef9061358e565b60405180910390fd5b60c8816001015410158015610a1257506103208160010154105b15610ae95760018160000160006101000a81548160ff02191690836001811115610a3f57610a3e613e13565b5b0217905550610a95338360600151600960009054906101000a900473ffffffffffffffffffffffffffffffffffffffff1673ffffffffffffffffffffffffffffffffffffffff1661176e9092919063ffffffff16565b823373ffffffffffffffffffffffffffffffffffffffff167f57764cd1fbc0734101465d7c0e003a1d83a67d46853373209b2db798cdb8627c42604051610adc91906136ce565b60405180910390a3610af0565b5050610af3565b50505b50565b816006600082815260200190815260200160002060009054906101000a900473ffffffffffffffffffffffffffffffffffffffff1673ffffffffffffffffffffffffffffffffffffffff163373ffffffffffffffffffffffffffffffffffffffff1614610b98576040517f08c379a0000000000000000000000000000000000000000000000000000000008152600401610b8f9061368e565b60405180910390fd5b6006600082815260200190815260200160002060006101000a81549073ffffffffffffffffffffffffffffffffffffffff0219169055807f7cc135e0cebb02c3480ae5d74d377283180a2601f8f644edf7987b009316c63a60405160405180910390a26000600c60008581526020019081526020016000206040518060400160405290816000820160009054906101000a900473ffffffffffffffffffffffffffffffffffffffff1673ffffffffffffffffffffffffffffffffffffffff1673ffffffffffffffffffffffffffffffffffffffff168152602001600182015481525050905082600e6000836000015173ffffffffffffffffffffffffffffffffffffffff1673ffffffffffffffffffffffffffffffffffffffff168152602001908152602001600020600083602001518152602001908152602001600020600101819055508060200151816000015173ffffffffffffffffffffffffffffffffffffffff167fccf914fdec02aa4d8656731dbfcfc7ea6b9c4df9cd6d11face89436b4fe2a91542604051610d2c91906136ce565b60405180910390a350505050565b610d42611667565b610d4c60006117f4565b565b600b6020528060005260406000206000915090505481565b60008060009054906101000a900473ffffffffffffffffffffffffffffffffffffffff16905090565b600d60205281600052604060002060205280600052604060002060009150915050806000018054610dbf90613cf3565b80601f0160208091040260200160405190810160405280929190818152602001828054610deb90613cf3565b8015610e385780601f10610e0d57610100808354040283529160200191610e38565b820191906000526020600020905b815481529060010190602001808311610e1b57829003601f168201915b505050505090806001018054610e4d90613cf3565b80601f0160208091040260200160405190810160405280929190818152602001828054610e7990613cf3565b8015610ec65780601f10610e9b57610100808354040283529160200191610ec6565b820191906000526020600020905b815481529060010190602001808311610ea957829003601f168201915b505050505090806002018054610edb90613cf3565b80601f0160208091040260200160405190810160405280929190818152602001828054610f0790613cf3565b8015610f545780601f10610f2957610100808354040283529160200191610f54565b820191906000526020600020905b815481529060010190602001808311610f3757829003601f168201915b5050505050908060030154908060040154908060050160009054906101000a900460ff16905086565b600e60003373ffffffffffffffffffffffffffffffffffffffff1673ffffffffffffffffffffffffffffffffffffffff168152602001908152602001600020600083815260200190815260200160002060020160009054906101000a900460ff161561101e576040517f08c379a00000000000000000000000000000000000000000000000000000000081526004016110159061360e565b60405180910390fd5b60405180606001604052806000600181111561103d5761103c613e13565b5b81526020016000815260200160011515815250600e60003373ffffffffffffffffffffffffffffffffffffffff1673ffffffffffffffffffffffffffffffffffffffff168152602001908152602001600020600084815260200190815260200160002060008201518160000160006101000a81548160ff021916908360018111156110cb576110ca613e13565b5b02179055506020820151816001015560408201518160020160006101000a81548160ff0219169083151502179055509050506000600d60003373ffffffffffffffffffffffffffffffffffffffff1673ffffffffffffffffffffffffffffffffffffffff16815260200190815260200160002060008481526020019081526020016000206040518060c001604052908160008201805461116a90613cf3565b80601f016020809104026020016040519081016040528092919081815260200182805461119690613cf3565b80156111e35780601f106111b8576101008083540402835291602001916111e3565b820191906000526020600020905b8154815290600101906020018083116111c657829003601f168201915b505050505081526020016001820180546111fc90613cf3565b80601f016020809104026020016040519081016040528092919081815260200182805461122890613cf3565b80156112755780601f1061124a57610100808354040283529160200191611275565b820191906000526020600020905b81548152906001019060200180831161125857829003601f168201915b5050505050815260200160028201805461128e90613cf3565b80601f01602080910402602001604051908101604052809291908181526020018280546112ba90613cf3565b80156113075780601f106112dc57610100808354040283529160200191611307565b820191906000526020600020905b8154815290600101906020018083116112ea57829003601f168201915b5050505050815260200160038201548152602001600482015481526020016005820160009054906101000a900460ff16151515158152505090506000611355826020015183604001516118b8565b905060405180604001604052803373ffffffffffffffffffffffffffffffffffffffff16815260200185815250600c600083815260200190815260200160002060008201518160000160006101000a81548173ffffffffffffffffffffffffffffffffffffffff021916908373ffffffffffffffffffffffffffffffffffffffff16021790555060208201518160010155905050833373ffffffffffffffffffffffffffffffffffffffff167f8afb0cfd6de90008d930a1df94c6c0a85c93f5f76d3f741ce2df936c3f19ef27428487604051611434939291906136e9565b60405180910390a350505050565b600e602052816000526040600020602052806000526040600020600091509150508060000160009054906101000a900460ff16908060010154908060020160009054906101000a900460ff16905083565b61149b611667565b8060088190555050565b600a6020528060005260406000206000915090508060000154908060010154908060020160009054906101000a900460ff16905083565b6114e4611667565b600073ffffffffffffffffffffffffffffffffffffffff168173ffffffffffffffffffffffffffffffffffffffff161415611554576040517f08c379a000000000000000000000000000000000000000000000000000000000815260040161154b906135ce565b60405180910390fd5b61155d816117f4565b50565b611568611667565b6115906064670de0b6b3a7640000836115819190613a33565b61158b9190613891565b611493565b50565b6115a1338686868686611c31565b600b60003373ffffffffffffffffffffffffffffffffffffffff1673ffffffffffffffffffffffffffffffffffffffff168152602001908152602001600020543373ffffffffffffffffffffffffffffffffffffffff167fd6320eb54b473aa4879a4d6a358977f5d9e9596a102603fdf78c296f2d66d0a260405160405180910390a35050505050565b600960009054906101000a900473ffffffffffffffffffffffffffffffffffffffff1681565b6000818361165f9190613a33565b905092915050565b61166f611ddc565b73ffffffffffffffffffffffffffffffffffffffff1661168d610d66565b73ffffffffffffffffffffffffffffffffffffffff16146116e3576040517f08c379a00000000000000000000000000000000000000000000000000000000081526004016116da9061364e565b60405180910390fd5b565b611768846323b872dd60e01b85858560405160240161170693929190613370565b604051602081830303815290604052907bffffffffffffffffffffffffffffffffffffffffffffffffffffffff19166020820180517bffffffffffffffffffffffffffffffffffffffffffffffffffffffff8381831617835250505050611de4565b50505050565b6117ef8363a9059cbb60e01b848460405160240161178d9291906133a7565b604051602081830303815290604052907bffffffffffffffffffffffffffffffffffffffffffffffffffffffff19166020820180517bffffffffffffffffffffffffffffffffffffffffffffffffffffffff8381831617835250505050611de4565b505050565b60008060009054906101000a900473ffffffffffffffffffffffffffffffffffffffff169050816000806101000a81548173ffffffffffffffffffffffffffffffffffffffff021916908373ffffffffffffffffffffffffffffffffffffffff1602179055508173ffffffffffffffffffffffffffffffffffffffff168173ffffffffffffffffffffffffffffffffffffffff167f8be0079c531659141344cd1fd0a4f28419497f9722a3daafe3b4186f6b6457e060405160405180910390a35050565b6000806118ce600754634357855e60e01b611eac565b9050600060405180606001604052806030815260200161426e6030913985856040518060400160405280602081526020017f333939346362626265623063653536366563663364306435386435376363633681525060405160200161193694939291906132f6565b60405160208183030381529060405290506119c66040518060400160405280600681526020017f6d6574686f6400000000000000000000000000000000000000000000000000008152506040518060400160405280600381526020017f474554000000000000000000000000000000000000000000000000000000000081525084611edc9092919063ffffffff16565b611a106040518060400160405280600381526020017f75726c00000000000000000000000000000000000000000000000000000000008152508284611edc9092919063ffffffff16565b611a726040518060400160405280600781526020017f68656164657273000000000000000000000000000000000000000000000000008152506040518060600160405280603f815260200161429e603f913984611edc9092919063ffffffff16565b611acb6040518060400160405280600481526020017f626f6479000000000000000000000000000000000000000000000000000000008152506040518060200160405280600081525084611edc9092919063ffffffff16565b611b4a6040518060400160405280600781526020017f636f6e74616374000000000000000000000000000000000000000000000000008152506040518060400160405280601681526020017f646572656b5f6c696e6b77656c6c6e6f6465732e696f0000000000000000000081525084611edc9092919063ffffffff16565b611bc96040518060400160405280600481526020017f70617468000000000000000000000000000000000000000000000000000000008152506040518060400160405280600c81526020017f776561746865722c302c6964000000000000000000000000000000000000000081525084611edc9092919063ffffffff16565b611c1b6040518060400160405280600a81526020017f6d756c7469706c69657200000000000000000000000000000000000000000000815250670de0b6b3a764000084611f0f9092919063ffffffff16565b611c2782600854611f42565b9250505092915050565b60006001600b60008973ffffffffffffffffffffffffffffffffffffffff1673ffffffffffffffffffffffffffffffffffffffff16815260200190815260200160002054611c7f919061383b565b90506040518060c0016040528087815260200186815260200185815260200184815260200183815260200160011515815250600d60008973ffffffffffffffffffffffffffffffffffffffff1673ffffffffffffffffffffffffffffffffffffffff16815260200190815260200160002060008381526020019081526020016000206000820151816000019080519060200190611d1d929190612a86565b506020820151816001019080519060200190611d3a929190612a86565b506040820151816002019080519060200190611d57929190612a86565b50606082015181600301556080820151816004015560a08201518160050160006101000a81548160ff02191690831515021790555090505080600b60008973ffffffffffffffffffffffffffffffffffffffff1673ffffffffffffffffffffffffffffffffffffffff1681526020019081526020016000208190555050505050505050565b600033905090565b6000611e46826040518060400160405280602081526020017f5361666545524332303a206c6f772d6c6576656c2063616c6c206661696c65648152508573ffffffffffffffffffffffffffffffffffffffff16611f799092919063ffffffff16565b9050600081511480611e68575080806020019051810190611e679190612cf6565b5b611ea7576040517f08c379a0000000000000000000000000000000000000000000000000000000008152600401611e9e906136ae565b60405180910390fd5b505050565b611eb4612b0c565b611ebc612b0c565b611ed384308584611f91909392919063ffffffff16565b91505092915050565b611ef382846080015161204190919063ffffffff16565b611f0a81846080015161204190919063ffffffff16565b505050565b611f2682846080015161204190919063ffffffff16565b611f3d81846080015161206690919063ffffffff16565b505050565b6000611f71600460009054906101000a900473ffffffffffffffffffffffffffffffffffffffff168484612113565b905092915050565b6060611f8884846000856121dd565b90509392505050565b611f99612b0c565b611fa985608001516101006122aa565b508385600001818152505082856020019073ffffffffffffffffffffffffffffffffffffffff16908173ffffffffffffffffffffffffffffffffffffffff16815250508185604001907bffffffffffffffffffffffffffffffffffffffffffffffffffffffff191690817bffffffffffffffffffffffffffffffffffffffffffffffffffffffff191681525050849050949350505050565b61204e8260038351612314565b612061818361249990919063ffffffff16565b505050565b7fffffffffffffffffffffffffffffffffffffffffffffffff000000000000000081121561209d5761209882826124bb565b61210f565b67ffffffffffffffff8113156120bc576120b78282612532565b61210e565b600081126120d5576120d082600083612314565b61210d565b61210c826001837fffffffffffffffffffffffffffffffffffffffffffffffffffffffffffffffff6121079190613a8d565b612314565b5b5b5b5050565b6000806005549050600181612128919061383b565b6005819055506000633c6d41b960e01b600080876000015188604001518660028b608001516000015160405160240161216797969594939291906133d0565b604051602081830303815290604052907bffffffffffffffffffffffffffffffffffffffffffffffffffffffff19166020820180517bffffffffffffffffffffffffffffffffffffffffffffffffffffffff838183161783525050505090506121d28683868461257e565b925050509392505050565b606082471015612222576040517f08c379a00000000000000000000000000000000000000000000000000000000081526004016122199061362e565b60405180910390fd5b6000808673ffffffffffffffffffffffffffffffffffffffff16858760405161224b91906132b3565b60006040518083038185875af1925050503d8060008114612288576040519150601f19603f3d011682016040523d82523d6000602084013e61228d565b606091505b509150915061229e87838387612722565b92505050949350505050565b6122b2612b79565b60006020836122c19190613d84565b146122ed576020826122d39190613d84565b60206122df9190613b21565b826122ea919061383b565b91505b81836020018181525050604051808452600081528281016020016040525082905092915050565b60178167ffffffffffffffff161161234b576123458160058460ff16901b60ff16178461279890919063ffffffff16565b50612494565b60ff8167ffffffffffffffff16116123a15761237a601860058460ff16901b178461279890919063ffffffff16565b5061239b8167ffffffffffffffff166001856127b89092919063ffffffff16565b50612493565b61ffff8167ffffffffffffffff16116123f8576123d1601960058460ff16901b178461279890919063ffffffff16565b506123f28167ffffffffffffffff166002856127b89092919063ffffffff16565b50612492565b63ffffffff8167ffffffffffffffff16116124515761242a601a60058460ff16901b178461279890919063ffffffff16565b5061244b8167ffffffffffffffff166004856127b89092919063ffffffff16565b50612491565b61246e601b60058460ff16901b178461279890919063ffffffff16565b5061248f8167ffffffffffffffff166008856127b89092919063ffffffff16565b505b5b5b5b505050565b6124a1612b79565b6124b3838460000151518485516127da565b905092915050565b6124d960036005600660ff16901b178361279890919063ffffffff16565b5061252e82827fffffffffffffffffffffffffffffffffffffffffffffffffffffffffffffffff61250a9190613a8d565b60405160200161251a91906136ce565b6040516020818303038152906040526128c9565b5050565b61255060026005600660ff16901b178361279890919063ffffffff16565b5061257a828260405160200161256691906136ce565b6040516020818303038152906040526128c9565b5050565b600030846040516020016125939291906132ca565b604051602081830303815290604052805190602001209050846006600083815260200190815260200160002060006101000a81548173ffffffffffffffffffffffffffffffffffffffff021916908373ffffffffffffffffffffffffffffffffffffffff160217905550807fb5e6e01e79f91267dc17b4e6314d5d4d03593d2ceee0fbb452b750bd70ea5af960405160405180910390a2600360009054906101000a900473ffffffffffffffffffffffffffffffffffffffff1673ffffffffffffffffffffffffffffffffffffffff16634000aea08685856040518463ffffffff1660e01b815260040161268993929190613446565b602060405180830381600087803b1580156126a357600080fd5b505af11580156126b7573d6000803e3d6000fd5b505050506040513d601f19601f820116820180604052508101906126db9190612cf6565b61271a576040517f08c379a0000000000000000000000000000000000000000000000000000000008152600401612711906135ee565b60405180910390fd5b949350505050565b606083156127855760008351141561277d5761273d856128ee565b61277c576040517f08c379a00000000000000000000000000000000000000000000000000000000081526004016127739061366e565b60405180910390fd5b5b829050612790565b61278f8383612911565b5b949350505050565b6127a0612b79565b6127b08384600001515184612961565b905092915050565b6127c0612b79565b6127d18485600001515185856129b8565b90509392505050565b6127e2612b79565b82518211156127f057600080fd5b84602001518285612801919061383b565b11156128365761283585600261282688602001518887612821919061383b565b612a46565b6128309190613a33565b612a62565b5b6000808651805187602083010193508088870111156128555787860182525b60208701925050505b6020841061289c5780518252602082612877919061383b565b9150602081612886919061383b565b90506020846128959190613b21565b935061285e565b60006001856020036101000a03905080198251168184511681811785525050508692505050949350505050565b6128d68260028351612314565b6128e9818361249990919063ffffffff16565b505050565b6000808273ffffffffffffffffffffffffffffffffffffffff163b119050919050565b6000825111156129245781518083602001fd5b806040517f08c379a000000000000000000000000000000000000000000000000000000000815260040161295891906134d6565b60405180910390fd5b612969612b79565b8360200151831061298f5761298e84600286602001516129899190613a33565b612a62565b5b83518051602085830101848153818614156129ab576001820183525b5050508390509392505050565b6129c0612b79565b846020015184836129d1919061383b565b11156129f9576129f885600286856129e9919061383b565b6129f39190613a33565b612a62565b5b6000600183610100612a0b9190613915565b612a159190613b21565b90508551838682010185831982511617815281518588011115612a385784870182525b505085915050949350505050565b600081831115612a5857829050612a5c565b8190505b92915050565b600082600001519050612a7583836122aa565b50612a808382612499565b50505050565b828054612a9290613cf3565b90600052602060002090601f016020900481019282612ab45760008555612afb565b82601f10612acd57805160ff1916838001178555612afb565b82800160010185558215612afb579182015b82811115612afa578251825591602001919060010190612adf565b5b509050612b089190612b93565b5090565b6040518060a0016040528060008019168152602001600073ffffffffffffffffffffffffffffffffffffffff16815260200160007bffffffffffffffffffffffffffffffffffffffffffffffffffffffff1916815260200160008152602001612b73612b79565b81525090565b604051806040016040528060608152602001600081525090565b5b80821115612bac576000816000905550600101612b94565b5090565b6000612bc3612bbe846137ac565b613787565b905082815260208101848484011115612bdf57612bde613eba565b5b612bea848285613cb1565b509392505050565b600081359050612c0181614211565b92915050565b600081519050612c1681614228565b92915050565b600081359050612c2b8161423f565b92915050565b600082601f830112612c4657612c45613eb5565b5b8135612c56848260208601612bb0565b91505092915050565b600081359050612c6e81614256565b92915050565b600081519050612c8381614256565b92915050565b600060208284031215612c9f57612c9e613ec4565b5b6000612cad84828501612bf2565b91505092915050565b60008060408385031215612ccd57612ccc613ec4565b5b6000612cdb85828601612bf2565b9250506020612cec85828601612c5f565b9150509250929050565b600060208284031215612d0c57612d0b613ec4565b5b6000612d1a84828501612c07565b91505092915050565b600060208284031215612d3957612d38613ec4565b5b6000612d4784828501612c1c565b91505092915050565b60008060408385031215612d6757612d66613ec4565b5b6000612d7585828601612c1c565b9250506020612d8685828601612c5f565b9150509250929050565b600060208284031215612da657612da5613ec4565b5b600082013567ffffffffffffffff811115612dc457612dc3613ebf565b5b612dd084828501612c31565b91505092915050565b600080600080600060a08688031215612df557612df4613ec4565b5b600086013567ffffffffffffffff811115612e1357612e12613ebf565b5b612e1f88828901612c31565b955050602086013567ffffffffffffffff811115612e4057612e3f613ebf565b5b612e4c88828901612c31565b945050604086013567ffffffffffffffff811115612e6d57612e6c613ebf565b5b612e7988828901612c31565b9350506060612e8a88828901612c5f565b9250506080612e9b88828901612c5f565b9150509295509295909350565b600060208284031215612ebe57612ebd613ec4565b5b6000612ecc84828501612c5f565b91505092915050565b600060208284031215612eeb57612eea613ec4565b5b6000612ef984828501612c74565b91505092915050565b60008060408385031215612f1957612f18613ec4565b5b6000612f2785828601612c5f565b925050602083013567ffffffffffffffff811115612f4857612f47613ebf565b5b612f5485828601612c31565b9150509250929050565b612f6781613b55565b82525050565b612f7681613b67565b82525050565b612f8581613b73565b82525050565b612f9481613b7d565b82525050565b6000612fa5826137ed565b612faf8185613803565b9350612fbf818560208601613cc0565b612fc881613ec9565b840191505092915050565b6000612fde826137ed565b612fe88185613814565b9350612ff8818560208601613cc0565b80840191505092915050565b61301561301082613c57565b613d56565b82525050565b61302481613c69565b82525050565b61303381613c7b565b82525050565b6000613044826137f8565b61304e818561381f565b935061305e818560208601613cc0565b61306781613ec9565b840191505092915050565b600061307d826137f8565b6130878185613830565b9350613097818560208601613cc0565b80840191505092915050565b60006130b060138361381f565b91506130bb82613f01565b602082019050919050565b60006130d360108361381f565b91506130de82613f2a565b602082019050919050565b60006130f6600c8361381f565b915061310182613f53565b602082019050919050565b600061311960268361381f565b915061312482613f7c565b604082019050919050565b600061313c60238361381f565b915061314782613fcb565b604082019050919050565b600061315f600d8361381f565b915061316a8261401a565b602082019050919050565b600061318260268361381f565b915061318d82614043565b604082019050919050565b60006131a5600583613830565b91506131b082614092565b600582019050919050565b60006131c860208361381f565b91506131d3826140bb565b602082019050919050565b60006131eb600783613830565b91506131f6826140e4565b600782019050919050565b600061320e600483613830565b91506132198261410d565b600482019050919050565b6000613231601d8361381f565b915061323c82614136565b602082019050919050565b600061325460288361381f565b915061325f8261415f565b604082019050919050565b6000613277602a8361381f565b9150613282826141ae565b604082019050919050565b61329681613be6565b82525050565b6132ad6132a882613be6565b613d7a565b82525050565b60006132bf8284612fd3565b915081905092915050565b60006132d68285613004565b6014820191506132e6828461329c565b6020820191508190509392505050565b60006133028287613072565b915061330d82613201565b91506133198286613072565b915061332482613198565b91506133308285613072565b915061333b826131de565b91506133478284613072565b915081905095945050505050565b600060208201905061336a6000830184612f5e565b92915050565b60006060820190506133856000830186612f5e565b6133926020830185612f5e565b61339f604083018461328d565b949350505050565b60006040820190506133bc6000830185612f5e565b6133c9602083018461328d565b9392505050565b600060e0820190506133e5600083018a612f5e565b6133f2602083018961328d565b6133ff6040830188612f7c565b61340c6060830187612f8b565b613419608083018661328d565b61342660a083018561328d565b81810360c08301526134388184612f9a565b905098975050505050505050565b600060608201905061345b6000830186612f5e565b613468602083018561328d565b818103604083015261347a8184612f9a565b9050949350505050565b6000602082019050613499600083018461301b565b92915050565b60006060820190506134b4600083018661302a565b6134c1602083018561328d565b6134ce6040830184612f6d565b949350505050565b600060208201905081810360008301526134f08184613039565b905092915050565b600060c08201905081810360008301526135128189613039565b905081810360208301526135268188613039565b9050818103604083015261353a8187613039565b9050613549606083018661328d565b613556608083018561328d565b61356360a0830184612f6d565b979650505050505050565b60006020820190508181036000830152613587816130a3565b9050919050565b600060208201905081810360008301526135a7816130c6565b9050919050565b600060208201905081810360008301526135c7816130e9565b9050919050565b600060208201905081810360008301526135e78161310c565b9050919050565b600060208201905081810360008301526136078161312f565b9050919050565b6000602082019050818103600083015261362781613152565b9050919050565b6000602082019050818103600083015261364781613175565b9050919050565b60006020820190508181036000830152613667816131bb565b9050919050565b6000602082019050818103600083015261368781613224565b9050919050565b600060208201905081810360008301526136a781613247565b9050919050565b600060208201905081810360008301526136c78161326a565b9050919050565b60006020820190506136e3600083018461328d565b92915050565b60006060820190506136fe600083018661328d565b61370b6020830185612f7c565b818103604083015261371d8184613039565b9050949350505050565b600060408201905061373c600083018561328d565b613749602083018461328d565b9392505050565b6000606082019050613765600083018661328d565b613772602083018561328d565b61377f6040830184612f6d565b949350505050565b60006137916137a2565b905061379d8282613d25565b919050565b6000604051905090565b600067ffffffffffffffff8211156137c7576137c6613e71565b5b6137d082613ec9565b9050602081019050919050565b6000819050602082019050919050565b600081519050919050565b600081519050919050565b600082825260208201905092915050565b600081905092915050565b600082825260208201905092915050565b600081905092915050565b600061384682613be6565b915061385183613be6565b9250827fffffffffffffffffffffffffffffffffffffffffffffffffffffffffffffffff0382111561388657613885613db5565b5b828201905092915050565b600061389c82613be6565b91506138a783613be6565b9250826138b7576138b6613de4565b5b828204905092915050565b6000808291508390505b600185111561390c578086048111156138e8576138e7613db5565b5b60018516156138f75780820291505b808102905061390585613ef4565b94506138cc565b94509492505050565b600061392082613be6565b915061392b83613be6565b92506139587fffffffffffffffffffffffffffffffffffffffffffffffffffffffffffffffff8484613960565b905092915050565b6000826139705760019050613a2c565b8161397e5760009050613a2c565b8160018114613994576002811461399e576139cd565b6001915050613a2c565b60ff8411156139b0576139af613db5565b5b8360020a9150848211156139c7576139c6613db5565b5b50613a2c565b5060208310610133831016604e8410600b8410161715613a025782820a9050838111156139fd576139fc613db5565b5b613a2c565b613a0f84848460016138c2565b92509050818404811115613a2657613a25613db5565b5b81810290505b9392505050565b6000613a3e82613be6565b9150613a4983613be6565b9250817fffffffffffffffffffffffffffffffffffffffffffffffffffffffffffffffff0483118215151615613a8257613a81613db5565b5b828202905092915050565b6000613a9882613bbc565b9150613aa383613bbc565b9250827f800000000000000000000000000000000000000000000000000000000000000001821260008412151615613ade57613add613db5565b5b827f7fffffffffffffffffffffffffffffffffffffffffffffffffffffffffffffff018213600084121615613b1657613b15613db5565b5b828203905092915050565b6000613b2c82613be6565b9150613b3783613be6565b925082821015613b4a57613b49613db5565b5b828203905092915050565b6000613b6082613bc6565b9050919050565b60008115159050919050565b6000819050919050565b60007fffffffff0000000000000000000000000000000000000000000000000000000082169050919050565b6000819050613bb7826141fd565b919050565b6000819050919050565b600073ffffffffffffffffffffffffffffffffffffffff82169050919050565b6000819050919050565b6000613bfb826137ed565b82613c05846137dd565b9050613c1081613ea0565b92506020821015613c5057613c4b7fffffffffffffffffffffffffffffffffffffffffffffffffffffffffffffffff83602003600802613ee7565b831692505b5050919050565b6000613c6282613c8d565b9050919050565b6000613c7482613c8d565b9050919050565b6000613c8682613ba9565b9050919050565b6000613c9882613c9f565b9050919050565b6000613caa82613bc6565b9050919050565b82818337600083830152505050565b60005b83811015613cde578082015181840152602081019050613cc3565b83811115613ced576000848401525b50505050565b60006002820490506001821680613d0b57607f821691505b60208210811415613d1f57613d1e613e42565b5b50919050565b613d2e82613ec9565b810181811067ffffffffffffffff82111715613d4d57613d4c613e71565b5b80604052505050565b6000613d6182613d68565b9050919050565b6000613d7382613eda565b9050919050565b6000819050919050565b6000613d8f82613be6565b9150613d9a83613be6565b925082613daa57613da9613de4565b5b828206905092915050565b7f4e487b7100000000000000000000000000000000000000000000000000000000600052601160045260246000fd5b7f4e487b7100000000000000000000000000000000000000000000000000000000600052601260045260246000fd5b7f4e487b7100000000000000000000000000000000000000000000000000000000600052602160045260246000fd5b7f4e487b7100000000000000000000000000000000000000000000000000000000600052602260045260246000fd5b7f4e487b7100000000000000000000000000000000000000000000000000000000600052604160045260246000fd5b6000613eac8251613b73565b80915050919050565b600080fd5b600080fd5b600080fd5b600080fd5b6000601f19601f8301169050919050565b60008160601b9050919050565b600082821b905092915050565b60008160011c9050919050565b7f696e73756666696369656e742066756e64732100000000000000000000000000600082015250565b7f616c726561647920636c61696d65642100000000000000000000000000000000600082015250565b7f7a65726f20616d6f756e74210000000000000000000000000000000000000000600082015250565b7f4f776e61626c653a206e6577206f776e657220697320746865207a65726f206160008201527f6464726573730000000000000000000000000000000000000000000000000000602082015250565b7f756e61626c6520746f207472616e73666572416e6443616c6c20746f206f726160008201527f636c650000000000000000000000000000000000000000000000000000000000602082015250565b7f636c61696d206578697374732100000000000000000000000000000000000000600082015250565b7f416464726573733a20696e73756666696369656e742062616c616e636520666f60008201527f722063616c6c0000000000000000000000000000000000000000000000000000602082015250565b7f266c6f6e3d000000000000000000000000000000000000000000000000000000600082015250565b7f4f776e61626c653a2063616c6c6572206973206e6f7420746865206f776e6572600082015250565b7f2661707069643d00000000000000000000000000000000000000000000000000600082015250565b7f6c61743d00000000000000000000000000000000000000000000000000000000600082015250565b7f416464726573733a2063616c6c20746f206e6f6e2d636f6e7472616374000000600082015250565b7f536f75726365206d75737420626520746865206f7261636c65206f662074686560008201527f2072657175657374000000000000000000000000000000000000000000000000602082015250565b7f5361666545524332303a204552433230206f7065726174696f6e20646964206e60008201527f6f74207375636365656400000000000000000000000000000000000000000000602082015250565b6002811061420e5761420d613e13565b5b50565b61421a81613b55565b811461422557600080fd5b50565b61423181613b67565b811461423c57600080fd5b50565b61424881613b73565b811461425357600080fd5b50565b61425f81613be6565b811461426a57600080fd5b5056fe68747470733a2f2f6170692e6f70656e776561746865726d61702e6f72672f646174612f322e352f776561746865723f5b22636f6e74656e742d74797065222c20226170706c69636174696f6e2f6a736f6e222c20227365742d636f6f6b6965222c20227369643d3134413532225da2646970667358221220e411dcecf839db8d101771bd4eb585cf6401def7b236f81c4fd71ad70d5da32b64736f6c63430008070033",
  "linkReferences": {},
  "deployedLinkReferences": {}
}