{
  "_format": "hh-sol-artifact-1",
  "contractName": "EventWise",
  "sourceName": "contracts/EventWise.sol",
  "abi": [
    {
      "inputs": [
        {
          "internalType": "address",
          "name": "_token",
          "type": "address"
        }
      ],
      "stateMutability": "nonpayable",
      "type": "constructor"
    },
    {
      "anonymous": false,
      "inputs": [
        {
          "indexed": true,
          "internalType": "bytes32",
          "name": "id",
          "type": "bytes32"
        }
      ],
      "name": "ChainlinkCancelled",
      "type": "event"
    },
    {
      "anonymous": false,
      "inputs": [
        {
          "indexed": true,
          "internalType": "bytes32",
          "name": "id",
          "type": "bytes32"
        }
      ],
      "name": "ChainlinkFulfilled",
      "type": "event"
    },
    {
      "anonymous": false,
      "inputs": [
        {
          "indexed": true,
          "internalType": "bytes32",
          "name": "id",
          "type": "bytes32"
        }
      ],
      "name": "ChainlinkRequested",
      "type": "event"
    },
    {
      "anonymous": false,
      "inputs": [
        {
          "indexed": true,
          "internalType": "address",
          "name": "user",
          "type": "address"
        },
        {
          "indexed": true,
          "internalType": "uint256",
          "name": "eventId",
          "type": "uint256"
        },
        {
          "indexed": false,
          "internalType": "uint256",
          "name": "date",
          "type": "uint256"
        }
      ],
      "name": "ClaimCompleted",
      "type": "event"
    },
    {
      "anonymous": false,
      "inputs": [
        {
          "indexed": true,
          "internalType": "address",
          "name": "user",
          "type": "address"
        },
        {
          "indexed": true,
          "internalType": "uint256",
          "name": "eventId",
          "type": "uint256"
        },
        {
          "indexed": false,
          "internalType": "uint256",
          "name": "date",
          "type": "uint256"
        }
      ],
      "name": "ClaimFulfilled",
      "type": "event"
    },
    {
      "anonymous": false,
      "inputs": [
        {
          "indexed": true,
          "internalType": "address",
          "name": "user",
          "type": "address"
        },
        {
          "indexed": true,
          "internalType": "uint256",
          "name": "eventId",
          "type": "uint256"
        },
        {
          "indexed": false,
          "internalType": "uint256",
          "name": "date",
          "type": "uint256"
        },
        {
          "indexed": false,
          "internalType": "bytes32",
          "name": "requestId",
          "type": "bytes32"
        },
        {
          "indexed": false,
          "internalType": "string",
          "name": "reason",
          "type": "string"
        }
      ],
      "name": "ClaimInitiated",
      "type": "event"
    },
    {
      "anonymous": false,
      "inputs": [
        {
          "indexed": true,
          "internalType": "address",
          "name": "user",
          "type": "address"
        },
        {
          "indexed": true,
          "internalType": "uint256",
          "name": "eventId",
          "type": "uint256"
        }
      ],
      "name": "EventCreated",
      "type": "event"
    },
    {
      "anonymous": false,
      "inputs": [
        {
          "indexed": true,
          "internalType": "address",
          "name": "previousOwner",
          "type": "address"
        },
        {
          "indexed": true,
          "internalType": "address",
          "name": "newOwner",
          "type": "address"
        }
      ],
      "name": "OwnershipTransferred",
      "type": "event"
    },
    {
      "anonymous": false,
      "inputs": [
        {
          "indexed": true,
          "internalType": "address",
          "name": "user",
          "type": "address"
        },
        {
          "indexed": false,
          "internalType": "uint256",
          "name": "premium",
          "type": "uint256"
        },
        {
          "indexed": false,
          "internalType": "uint256",
          "name": "date",
          "type": "uint256"
        }
      ],
      "name": "PolicyCreated",
      "type": "event"
    },
    {
      "anonymous": false,
      "inputs": [
        {
          "indexed": true,
          "internalType": "address",
          "name": "user",
          "type": "address"
        },
        {
          "indexed": false,
          "internalType": "uint256",
          "name": "amount",
          "type": "uint256"
        },
        {
          "indexed": false,
          "internalType": "uint256",
          "name": "date",
          "type": "uint256"
        }
      ],
      "name": "PremiumPaid",
      "type": "event"
    },
    {
      "inputs": [
        {
          "internalType": "address",
          "name": "",
          "type": "address"
        },
        {
          "internalType": "uint256",
          "name": "",
          "type": "uint256"
        }
      ],
      "name": "Claims",
      "outputs": [
        {
          "internalType": "enum EventWise.Status",
          "name": "status",
          "type": "uint8"
        },
        {
          "internalType": "uint256",
          "name": "weatherCondition",
          "type": "uint256"
        },
        {
          "internalType": "bool",
          "name": "isExists",
          "type": "bool"
        }
      ],
      "stateMutability": "view",
      "type": "function"
    },
    {
      "inputs": [
        {
          "internalType": "address",
          "name": "",
          "type": "address"
        },
        {
          "internalType": "uint256",
          "name": "",
          "type": "uint256"
        }
      ],
      "name": "Events",
      "outputs": [
        {
          "internalType": "string",
          "name": "name",
          "type": "string"
        },
        {
          "internalType": "string",
          "name": "latitude",
          "type": "string"
        },
        {
          "internalType": "string",
          "name": "longitude",
          "type": "string"
        },
        {
          "internalType": "string",
          "name": "attendees",
          "type": "string"
        },
        {
          "internalType": "uint256",
          "name": "cost",
          "type": "uint256"
        },
        {
          "internalType": "uint256",
          "name": "date",
          "type": "uint256"
        },
        {
          "internalType": "uint256",
          "name": "eventId",
          "type": "uint256"
        },
        {
          "internalType": "bool",
          "name": "isExists",
          "type": "bool"
        }
      ],
      "stateMutability": "view",
      "type": "function"
    },
    {
      "inputs": [
        {
          "internalType": "address",
          "name": "",
          "type": "address"
        }
      ],
      "name": "InsurancePolicy",
      "outputs": [
        {
          "internalType": "uint256",
          "name": "avgEventCost",
          "type": "uint256"
        },
        {
          "internalType": "uint256",
          "name": "premiumAmount",
          "type": "uint256"
        },
        {
          "internalType": "bool",
          "name": "isExists",
          "type": "bool"
        }
      ],
      "stateMutability": "view",
      "type": "function"
    },
    {
      "inputs": [
        {
          "internalType": "bytes32",
          "name": "",
          "type": "bytes32"
        }
      ],
      "name": "Requests",
      "outputs": [
        {
          "internalType": "address",
          "name": "user",
          "type": "address"
        },
        {
          "internalType": "uint256",
          "name": "eventId",
          "type": "uint256"
        }
      ],
      "stateMutability": "view",
      "type": "function"
    },
    {
      "inputs": [
        {
          "internalType": "uint256",
          "name": "eventId",
          "type": "uint256"
        }
      ],
      "name": "completeClaim",
      "outputs": [],
      "stateMutability": "nonpayable",
      "type": "function"
    },
    {
      "inputs": [
        {
          "internalType": "string",
          "name": "name",
          "type": "string"
        },
        {
          "internalType": "string",
          "name": "latitude",
          "type": "string"
        },
        {
          "internalType": "string",
          "name": "longitude",
          "type": "string"
        },
        {
          "internalType": "string",
          "name": "attendees",
          "type": "string"
        },
        {
          "internalType": "uint256",
          "name": "cost",
          "type": "uint256"
        },
        {
          "internalType": "uint256",
          "name": "date",
          "type": "uint256"
        }
      ],
      "name": "createEvent",
      "outputs": [],
      "stateMutability": "nonpayable",
      "type": "function"
    },
    {
      "inputs": [
        {
          "internalType": "uint256",
          "name": "_avgEventCost",
          "type": "uint256"
        }
      ],
      "name": "createPolicy",
      "outputs": [],
      "stateMutability": "nonpayable",
      "type": "function"
    },
    {
      "inputs": [
        {
          "internalType": "bytes32",
          "name": "_requestId",
          "type": "bytes32"
        },
        {
          "internalType": "uint256",
          "name": "_rainfall",
          "type": "uint256"
        }
      ],
      "name": "fulfill",
      "outputs": [],
      "stateMutability": "nonpayable",
      "type": "function"
    },
    {
      "inputs": [
        {
          "internalType": "uint256",
          "name": "eventId",
          "type": "uint256"
        },
        {
          "internalType": "string",
          "name": "reason",
          "type": "string"
        }
      ],
      "name": "initiateClaim",
      "outputs": [],
      "stateMutability": "nonpayable",
      "type": "function"
    },
    {
      "inputs": [
        {
          "internalType": "address",
          "name": "",
          "type": "address"
        }
      ],
      "name": "latestEventId",
      "outputs": [
        {
          "internalType": "uint256",
          "name": "",
          "type": "uint256"
        }
      ],
      "stateMutability": "view",
      "type": "function"
    },
    {
      "inputs": [],
      "name": "owner",
      "outputs": [
        {
          "internalType": "address",
          "name": "",
          "type": "address"
        }
      ],
      "stateMutability": "view",
      "type": "function"
    },
    {
      "inputs": [],
      "name": "payPremium",
      "outputs": [],
      "stateMutability": "nonpayable",
      "type": "function"
    },
    {
      "inputs": [],
      "name": "renounceOwnership",
      "outputs": [],
      "stateMutability": "nonpayable",
      "type": "function"
    },
    {
      "inputs": [
        {
          "internalType": "uint256",
          "name": "_feeInHundredthsOfLink",
          "type": "uint256"
        }
      ],
      "name": "setFeeInHundredthsOfLink",
      "outputs": [],
      "stateMutability": "nonpayable",
      "type": "function"
    },
    {
      "inputs": [
        {
          "internalType": "uint256",
          "name": "_feeInJuels",
          "type": "uint256"
        }
      ],
      "name": "setFeeInJuels",
      "outputs": [],
      "stateMutability": "nonpayable",
      "type": "function"
    },
    {
      "inputs": [
        {
          "internalType": "string",
          "name": "_jobId",
          "type": "string"
        }
      ],
      "name": "setJobId",
      "outputs": [],
      "stateMutability": "nonpayable",
      "type": "function"
    },
    {
      "inputs": [],
      "name": "token",
      "outputs": [
        {
          "internalType": "contract IERC20",
          "name": "",
          "type": "address"
        }
      ],
      "stateMutability": "view",
      "type": "function"
    },
    {
      "inputs": [
        {
          "internalType": "address",
          "name": "newOwner",
          "type": "address"
        }
      ],
      "name": "transferOwnership",
      "outputs": [],
      "stateMutability": "nonpayable",
      "type": "function"
    }
  ],
  "bytecode": "0x608060405260016005553480156200001657600080fd5b5060405162004d3038038062004d3083398181016040528101906200003c9190620003f1565b6200005c620000506200014660201b60201c565b6200014e60201b60201c565b80600960006101000a81548173ffffffffffffffffffffffffffffffffffffffff021916908373ffffffffffffffffffffffffffffffffffffffff160217905550620000c273779877a7b0d9e8603169ddbd7836e478b46247896200021260201b60201c565b620000e7730facf846af22bce1c7f88d1d55a038f27747ed2b6200025660201b60201c565b6200012d6040518060400160405280602081526020017f61383335366634383536396334333465616134616335666362346462356363308152506200029a60201b60201c565b6200013f6000620002bf60201b60201c565b50620006b3565b600033905090565b60008060009054906101000a900473ffffffffffffffffffffffffffffffffffffffff169050816000806101000a81548173ffffffffffffffffffffffffffffffffffffffff021916908373ffffffffffffffffffffffffffffffffffffffff1602179055508173ffffffffffffffffffffffffffffffffffffffff168173ffffffffffffffffffffffffffffffffffffffff167f8be0079c531659141344cd1fd0a4f28419497f9722a3daafe3b4186f6b6457e060405160405180910390a35050565b80600360006101000a81548173ffffffffffffffffffffffffffffffffffffffff021916908373ffffffffffffffffffffffffffffffffffffffff16021790555050565b80600460006101000a81548173ffffffffffffffffffffffffffffffffffffffff021916908373ffffffffffffffffffffffffffffffffffffffff16021790555050565b620002aa6200030660201b60201c565b80620002b69062000579565b60078190555050565b620002cf6200030660201b60201c565b620003036064670de0b6b3a764000083620002eb9190620004d0565b620002f7919062000498565b6200039760201b60201c565b50565b620003166200014660201b60201c565b73ffffffffffffffffffffffffffffffffffffffff166200033c620003b160201b60201c565b73ffffffffffffffffffffffffffffffffffffffff161462000395576040517f08c379a00000000000000000000000000000000000000000000000000000000081526004016200038c906200044a565b60405180910390fd5b565b620003a76200030660201b60201c565b8060088190555050565b60008060009054906101000a900473ffffffffffffffffffffffffffffffffffffffff16905090565b600081519050620003eb8162000699565b92915050565b6000602082840312156200040a57620004096200065e565b5b60006200041a84828501620003da565b91505092915050565b60006200043260208362000487565b91506200043f8262000670565b602082019050919050565b60006020820190508181036000830152620004658162000423565b9050919050565b6000819050602082019050919050565b600081519050919050565b600082825260208201905092915050565b6000620004a5826200056f565b9150620004b2836200056f565b925082620004c557620004c462000618565b5b828204905092915050565b6000620004dd826200056f565b9150620004ea836200056f565b9250817fffffffffffffffffffffffffffffffffffffffffffffffffffffffffffffffff0483118215151615620005265762000525620005e9565b5b828202905092915050565b60006200053e826200054f565b9050919050565b6000819050919050565b600073ffffffffffffffffffffffffffffffffffffffff82169050919050565b6000819050919050565b600062000586826200047c565b8262000592846200046c565b90506200059f8162000647565b92506020821015620005e257620005dd7fffffffffffffffffffffffffffffffffffffffffffffffffffffffffffffffff8360200360080262000663565b831692505b5050919050565b7f4e487b7100000000000000000000000000000000000000000000000000000000600052601160045260246000fd5b7f4e487b7100000000000000000000000000000000000000000000000000000000600052601260045260246000fd5b600062000655825162000545565b80915050919050565b600080fd5b600082821b905092915050565b7f4f776e61626c653a2063616c6c6572206973206e6f7420746865206f776e6572600082015250565b620006a48162000531565b8114620006b057600080fd5b50565b61466d80620006c36000396000f3fe608060405234801561001057600080fd5b50600436106101165760003560e01c80638da5cb5b116100a2578063e3da201d11610071578063e3da201d146102bf578063eb996408146102db578063f2fde38b1461030d578063f34473a514610329578063fc0c546a1461034557610116565b80638da5cb5b1461021c578063b20813391461023a578063bdc9317d14610271578063c88fae5b1461028d57610116565b806329c08ba2116100e957806329c08ba2146101a05780632a36614c146101aa5780634357855e146101c6578063715018a6146101e257806387ff0e1e146101ec57610116565b8063012b173d1461011b57806304bd12bb1461014c578063129fc1c01461016857806315cd972d14610184575b600080fd5b61013560048036038101906101309190612fc0565b610363565b604051610143929190613695565b60405180910390f35b61016660048036038101906101619190613173565b6103a7565b005b610182600480360381019061017d919061302d565b61058c565b005b61019e60048036038101906101999190613076565b6105a7565b005b6101a8610641565b005b6101c460048036038101906101bf9190613173565b61072a565b005b6101e060048036038101906101db9190612fed565b610cc5565b005b6101ea610f09565b005b61020660048036038101906102019190612f26565b610f1d565b6040516102139190613a00565b60405180910390f35b610224610f35565b6040516102319190613643565b60405180910390f35b610254600480360381019061024f9190612f53565b610f5e565b6040516102689897969594939291906137e6565b60405180910390f35b61028b600480360381019061028691906131cd565b6111e0565b005b6102a760048036038101906102a29190612f53565b611742565b6040516102b69392919061378d565b60405180910390f35b6102d960048036038101906102d49190613173565b611793565b005b6102f560048036038101906102f09190612f26565b6117a5565b60405161030493929190613a82565b60405180910390f35b61032760048036038101906103229190612f26565b6117dc565b005b610343600480360381019061033e9190613173565b611860565b005b61034d611893565b60405161035a9190613772565b60405180910390f35b600c6020528060005260406000206000915090508060000160009054906101000a900473ffffffffffffffffffffffffffffffffffffffff16908060010154905082565b600081116103ea576040517f08c379a00000000000000000000000000000000000000000000000000000000081526004016103e1906138e0565b60405180910390fd5b60001515600a60003373ffffffffffffffffffffffffffffffffffffffff1673ffffffffffffffffffffffffffffffffffffffff16815260200190815260200160002060020160009054906101000a900460ff16151514610480576040517f08c379a0000000000000000000000000000000000000000000000000000000008152600401610477906138a0565b60405180910390fd5b600060646104986002846118b990919063ffffffff16565b6104a29190613bc3565b9050604051806060016040528083815260200182815260200160011515815250600a60003373ffffffffffffffffffffffffffffffffffffffff1673ffffffffffffffffffffffffffffffffffffffff168152602001908152602001600020600082015181600001556020820151816001015560408201518160020160006101000a81548160ff0219169083151502179055509050503373ffffffffffffffffffffffffffffffffffffffff167f93aceb1c5e55aa194781a0423a101b97efa4a051e8d2fc2ba332ca75f4e4b6a78242604051610580929190613a59565b60405180910390a25050565b6105946118cf565b8061059e90613f22565b60078190555050565b6105b63387878787878761194d565b600b60003373ffffffffffffffffffffffffffffffffffffffff1673ffffffffffffffffffffffffffffffffffffffff168152602001908152602001600020543373ffffffffffffffffffffffffffffffffffffffff167fd6320eb54b473aa4879a4d6a358977f5d9e9596a102603fdf78c296f2d66d0a260405160405180910390a3505050505050565b6000600a60003373ffffffffffffffffffffffffffffffffffffffff1673ffffffffffffffffffffffffffffffffffffffff1681526020019081526020016000206001015490506106d7333083600960009054906101000a900473ffffffffffffffffffffffffffffffffffffffff1673ffffffffffffffffffffffffffffffffffffffff16611b2d909392919063ffffffff16565b3373ffffffffffffffffffffffffffffffffffffffff167f395bd21029ce552d1941c174d800a5599c4b1b28887cc9b9eea83c5409da93ef824260405161071f929190613a59565b60405180910390a250565b6000600d60003373ffffffffffffffffffffffffffffffffffffffff1673ffffffffffffffffffffffffffffffffffffffff16815260200190815260200160002060008381526020019081526020016000206040518061010001604052908160008201805461079890614025565b80601f01602080910402602001604051908101604052809291908181526020018280546107c490614025565b80156108115780601f106107e657610100808354040283529160200191610811565b820191906000526020600020905b8154815290600101906020018083116107f457829003601f168201915b5050505050815260200160018201805461082a90614025565b80601f016020809104026020016040519081016040528092919081815260200182805461085690614025565b80156108a35780601f10610878576101008083540402835291602001916108a3565b820191906000526020600020905b81548152906001019060200180831161088657829003601f168201915b505050505081526020016002820180546108bc90614025565b80601f01602080910402602001604051908101604052809291908181526020018280546108e890614025565b80156109355780601f1061090a57610100808354040283529160200191610935565b820191906000526020600020905b81548152906001019060200180831161091857829003601f168201915b5050505050815260200160038201805461094e90614025565b80601f016020809104026020016040519081016040528092919081815260200182805461097a90614025565b80156109c75780601f1061099c576101008083540402835291602001916109c7565b820191906000526020600020905b8154815290600101906020018083116109aa57829003601f168201915b505050505081526020016004820154815260200160058201548152602001600682015481526020016007820160009054906101000a900460ff16151515158152505090508060800151600960009054906101000a900473ffffffffffffffffffffffffffffffffffffffff1673ffffffffffffffffffffffffffffffffffffffff166370a08231306040518263ffffffff1660e01b8152600401610a6b9190613643565b60206040518083038186803b158015610a8357600080fd5b505afa158015610a97573d6000803e3d6000fd5b505050506040513d601f19601f82011682018060405250810190610abb91906131a0565b11610afb576040517f08c379a0000000000000000000000000000000000000000000000000000000008152600401610af290613880565b60405180910390fd5b6000600e60003373ffffffffffffffffffffffffffffffffffffffff1673ffffffffffffffffffffffffffffffffffffffff16815260200190815260200160002060008481526020019081526020016000209050600180811115610b6257610b61614145565b5b8160000160009054906101000a900460ff166001811115610b8657610b85614145565b5b1415610bc7576040517f08c379a0000000000000000000000000000000000000000000000000000000008152600401610bbe906138c0565b60405180910390fd5b60c8816001015410158015610be157506103208160010154105b15610cb85760018160000160006101000a81548160ff02191690836001811115610c0e57610c0d614145565b5b0217905550610c64338360800151600960009054906101000a900473ffffffffffffffffffffffffffffffffffffffff1673ffffffffffffffffffffffffffffffffffffffff16611bb69092919063ffffffff16565b823373ffffffffffffffffffffffffffffffffffffffff167f57764cd1fbc0734101465d7c0e003a1d83a67d46853373209b2db798cdb8627c42604051610cab9190613a00565b60405180910390a3610cbf565b5050610cc2565b50505b50565b816006600082815260200190815260200160002060009054906101000a900473ffffffffffffffffffffffffffffffffffffffff1673ffffffffffffffffffffffffffffffffffffffff163373ffffffffffffffffffffffffffffffffffffffff1614610d67576040517f08c379a0000000000000000000000000000000000000000000000000000000008152600401610d5e906139c0565b60405180910390fd5b6006600082815260200190815260200160002060006101000a81549073ffffffffffffffffffffffffffffffffffffffff0219169055807f7cc135e0cebb02c3480ae5d74d377283180a2601f8f644edf7987b009316c63a60405160405180910390a26000600c60008581526020019081526020016000206040518060400160405290816000820160009054906101000a900473ffffffffffffffffffffffffffffffffffffffff1673ffffffffffffffffffffffffffffffffffffffff1673ffffffffffffffffffffffffffffffffffffffff168152602001600182015481525050905082600e6000836000015173ffffffffffffffffffffffffffffffffffffffff1673ffffffffffffffffffffffffffffffffffffffff168152602001908152602001600020600083602001518152602001908152602001600020600101819055508060200151816000015173ffffffffffffffffffffffffffffffffffffffff167fccf914fdec02aa4d8656731dbfcfc7ea6b9c4df9cd6d11face89436b4fe2a91542604051610efb9190613a00565b60405180910390a350505050565b610f116118cf565b610f1b6000611c3c565b565b600b6020528060005260406000206000915090505481565b60008060009054906101000a900473ffffffffffffffffffffffffffffffffffffffff16905090565b600d60205281600052604060002060205280600052604060002060009150915050806000018054610f8e90614025565b80601f0160208091040260200160405190810160405280929190818152602001828054610fba90614025565b80156110075780601f10610fdc57610100808354040283529160200191611007565b820191906000526020600020905b815481529060010190602001808311610fea57829003601f168201915b50505050509080600101805461101c90614025565b80601f016020809104026020016040519081016040528092919081815260200182805461104890614025565b80156110955780601f1061106a57610100808354040283529160200191611095565b820191906000526020600020905b81548152906001019060200180831161107857829003601f168201915b5050505050908060020180546110aa90614025565b80601f01602080910402602001604051908101604052809291908181526020018280546110d690614025565b80156111235780601f106110f857610100808354040283529160200191611123565b820191906000526020600020905b81548152906001019060200180831161110657829003601f168201915b50505050509080600301805461113890614025565b80601f016020809104026020016040519081016040528092919081815260200182805461116490614025565b80156111b15780601f10611186576101008083540402835291602001916111b1565b820191906000526020600020905b81548152906001019060200180831161119457829003601f168201915b5050505050908060040154908060050154908060060154908060070160009054906101000a900460ff16905088565b600e60003373ffffffffffffffffffffffffffffffffffffffff1673ffffffffffffffffffffffffffffffffffffffff168152602001908152602001600020600083815260200190815260200160002060020160009054906101000a900460ff1615611281576040517f08c379a000000000000000000000000000000000000000000000000000000000815260040161127890613940565b60405180910390fd5b6040518060600160405280600060018111156112a05761129f614145565b5b81526020016000815260200160011515815250600e60003373ffffffffffffffffffffffffffffffffffffffff1673ffffffffffffffffffffffffffffffffffffffff168152602001908152602001600020600084815260200190815260200160002060008201518160000160006101000a81548160ff0219169083600181111561132e5761132d614145565b5b02179055506020820151816001015560408201518160020160006101000a81548160ff0219169083151502179055509050506000600d60003373ffffffffffffffffffffffffffffffffffffffff1673ffffffffffffffffffffffffffffffffffffffff1681526020019081526020016000206000848152602001908152602001600020604051806101000160405290816000820180546113ce90614025565b80601f01602080910402602001604051908101604052809291908181526020018280546113fa90614025565b80156114475780601f1061141c57610100808354040283529160200191611447565b820191906000526020600020905b81548152906001019060200180831161142a57829003601f168201915b5050505050815260200160018201805461146090614025565b80601f016020809104026020016040519081016040528092919081815260200182805461148c90614025565b80156114d95780601f106114ae576101008083540402835291602001916114d9565b820191906000526020600020905b8154815290600101906020018083116114bc57829003601f168201915b505050505081526020016002820180546114f290614025565b80601f016020809104026020016040519081016040528092919081815260200182805461151e90614025565b801561156b5780601f106115405761010080835404028352916020019161156b565b820191906000526020600020905b81548152906001019060200180831161154e57829003601f168201915b5050505050815260200160038201805461158490614025565b80601f01602080910402602001604051908101604052809291908181526020018280546115b090614025565b80156115fd5780601f106115d2576101008083540402835291602001916115fd565b820191906000526020600020905b8154815290600101906020018083116115e057829003601f168201915b505050505081526020016004820154815260200160058201548152602001600682015481526020016007820160009054906101000a900460ff1615151515815250509050600061165582602001518360400151611d00565b905060405180604001604052803373ffffffffffffffffffffffffffffffffffffffff16815260200185815250600c600083815260200190815260200160002060008201518160000160006101000a81548173ffffffffffffffffffffffffffffffffffffffff021916908373ffffffffffffffffffffffffffffffffffffffff16021790555060208201518160010155905050833373ffffffffffffffffffffffffffffffffffffffff167f8afb0cfd6de90008d930a1df94c6c0a85c93f5f76d3f741ce2df936c3f19ef2742848760405161173493929190613a1b565b60405180910390a350505050565b600e602052816000526040600020602052806000526040600020600091509150508060000160009054906101000a900460ff16908060010154908060020160009054906101000a900460ff16905083565b61179b6118cf565b8060088190555050565b600a6020528060005260406000206000915090508060000154908060010154908060020160009054906101000a900460ff16905083565b6117e46118cf565b600073ffffffffffffffffffffffffffffffffffffffff168173ffffffffffffffffffffffffffffffffffffffff161415611854576040517f08c379a000000000000000000000000000000000000000000000000000000000815260040161184b90613900565b60405180910390fd5b61185d81611c3c565b50565b6118686118cf565b6118906064670de0b6b3a7640000836118819190613d65565b61188b9190613bc3565b611793565b50565b600960009054906101000a900473ffffffffffffffffffffffffffffffffffffffff1681565b600081836118c79190613d65565b905092915050565b6118d7612079565b73ffffffffffffffffffffffffffffffffffffffff166118f5610f35565b73ffffffffffffffffffffffffffffffffffffffff161461194b576040517f08c379a000000000000000000000000000000000000000000000000000000000815260040161194290613980565b60405180910390fd5b565b60006001600b60008a73ffffffffffffffffffffffffffffffffffffffff1673ffffffffffffffffffffffffffffffffffffffff1681526020019081526020016000205461199b9190613b6d565b905060405180610100016040528088815260200187815260200186815260200185815260200184815260200183815260200182815260200160011515815250600d60008a73ffffffffffffffffffffffffffffffffffffffff1673ffffffffffffffffffffffffffffffffffffffff16815260200190815260200160002060008381526020019081526020016000206000820151816000019080519060200190611a46929190612d23565b506020820151816001019080519060200190611a63929190612d23565b506040820151816002019080519060200190611a80929190612d23565b506060820151816003019080519060200190611a9d929190612d23565b506080820151816004015560a0820151816005015560c0820151816006015560e08201518160070160006101000a81548160ff02191690831515021790555090505080600b60008a73ffffffffffffffffffffffffffffffffffffffff1673ffffffffffffffffffffffffffffffffffffffff168152602001908152602001600020819055505050505050505050565b611bb0846323b872dd60e01b858585604051602401611b4e9392919061365e565b604051602081830303815290604052907bffffffffffffffffffffffffffffffffffffffffffffffffffffffff19166020820180517bffffffffffffffffffffffffffffffffffffffffffffffffffffffff8381831617835250505050612081565b50505050565b611c378363a9059cbb60e01b8484604051602401611bd5929190613695565b604051602081830303815290604052907bffffffffffffffffffffffffffffffffffffffffffffffffffffffff19166020820180517bffffffffffffffffffffffffffffffffffffffffffffffffffffffff8381831617835250505050612081565b505050565b60008060009054906101000a900473ffffffffffffffffffffffffffffffffffffffff169050816000806101000a81548173ffffffffffffffffffffffffffffffffffffffff021916908373ffffffffffffffffffffffffffffffffffffffff1602179055508173ffffffffffffffffffffffffffffffffffffffff168173ffffffffffffffffffffffffffffffffffffffff167f8be0079c531659141344cd1fd0a4f28419497f9722a3daafe3b4186f6b6457e060405160405180910390a35050565b600080611d16600754634357855e60e01b612149565b905060006040518060600160405280603081526020016145c96030913985856040518060400160405280602081526020017f3339393463626262656230636535363665636633643064353864353763636336815250604051602001611d7e94939291906135e4565b6040516020818303038152906040529050611e0e6040518060400160405280600681526020017f6d6574686f6400000000000000000000000000000000000000000000000000008152506040518060400160405280600381526020017f4745540000000000000000000000000000000000000000000000000000000000815250846121799092919063ffffffff16565b611e586040518060400160405280600381526020017f75726c000000000000000000000000000000000000000000000000000000000081525082846121799092919063ffffffff16565b611eba6040518060400160405280600781526020017f68656164657273000000000000000000000000000000000000000000000000008152506040518060600160405280603f81526020016145f9603f9139846121799092919063ffffffff16565b611f136040518060400160405280600481526020017f626f64790000000000000000000000000000000000000000000000000000000081525060405180602001604052806000815250846121799092919063ffffffff16565b611f926040518060400160405280600781526020017f636f6e74616374000000000000000000000000000000000000000000000000008152506040518060400160405280601681526020017f646572656b5f6c696e6b77656c6c6e6f6465732e696f00000000000000000000815250846121799092919063ffffffff16565b6120116040518060400160405280600481526020017f70617468000000000000000000000000000000000000000000000000000000008152506040518060400160405280600c81526020017f776561746865722c302c69640000000000000000000000000000000000000000815250846121799092919063ffffffff16565b6120636040518060400160405280600a81526020017f6d756c7469706c69657200000000000000000000000000000000000000000000815250670de0b6b3a7640000846121ac9092919063ffffffff16565b61206f826008546121df565b9250505092915050565b600033905090565b60006120e3826040518060400160405280602081526020017f5361666545524332303a206c6f772d6c6576656c2063616c6c206661696c65648152508573ffffffffffffffffffffffffffffffffffffffff166122169092919063ffffffff16565b90506000815114806121055750808060200190518101906121049190612f93565b5b612144576040517f08c379a000000000000000000000000000000000000000000000000000000000815260040161213b906139e0565b60405180910390fd5b505050565b612151612da9565b612159612da9565b6121708430858461222e909392919063ffffffff16565b91505092915050565b6121908284608001516122de90919063ffffffff16565b6121a78184608001516122de90919063ffffffff16565b505050565b6121c38284608001516122de90919063ffffffff16565b6121da81846080015161230390919063ffffffff16565b505050565b600061220e600460009054906101000a900473ffffffffffffffffffffffffffffffffffffffff1684846123b0565b905092915050565b6060612225848460008561247a565b90509392505050565b612236612da9565b6122468560800151610100612547565b508385600001818152505082856020019073ffffffffffffffffffffffffffffffffffffffff16908173ffffffffffffffffffffffffffffffffffffffff16815250508185604001907bffffffffffffffffffffffffffffffffffffffffffffffffffffffff191690817bffffffffffffffffffffffffffffffffffffffffffffffffffffffff191681525050849050949350505050565b6122eb82600383516125b1565b6122fe818361273690919063ffffffff16565b505050565b7fffffffffffffffffffffffffffffffffffffffffffffffff000000000000000081121561233a576123358282612758565b6123ac565b67ffffffffffffffff8113156123595761235482826127cf565b6123ab565b600081126123725761236d826000836125b1565b6123aa565b6123a9826001837fffffffffffffffffffffffffffffffffffffffffffffffffffffffffffffffff6123a49190613dbf565b6125b1565b5b5b5b5050565b60008060055490506001816123c59190613b6d565b6005819055506000633c6d41b960e01b600080876000015188604001518660028b608001516000015160405160240161240497969594939291906136be565b604051602081830303815290604052907bffffffffffffffffffffffffffffffffffffffffffffffffffffffff19166020820180517bffffffffffffffffffffffffffffffffffffffffffffffffffffffff8381831617835250505050905061246f8683868461281b565b925050509392505050565b6060824710156124bf576040517f08c379a00000000000000000000000000000000000000000000000000000000081526004016124b690613960565b60405180910390fd5b6000808673ffffffffffffffffffffffffffffffffffffffff1685876040516124e891906135a1565b60006040518083038185875af1925050503d8060008114612525576040519150601f19603f3d011682016040523d82523d6000602084013e61252a565b606091505b509150915061253b878383876129bf565b92505050949350505050565b61254f612e16565b600060208361255e91906140b6565b1461258a5760208261257091906140b6565b602061257c9190613e53565b826125879190613b6d565b91505b81836020018181525050604051808452600081528281016020016040525082905092915050565b60178167ffffffffffffffff16116125e8576125e28160058460ff16901b60ff161784612a3590919063ffffffff16565b50612731565b60ff8167ffffffffffffffff161161263e57612617601860058460ff16901b1784612a3590919063ffffffff16565b506126388167ffffffffffffffff16600185612a559092919063ffffffff16565b50612730565b61ffff8167ffffffffffffffff16116126955761266e601960058460ff16901b1784612a3590919063ffffffff16565b5061268f8167ffffffffffffffff16600285612a559092919063ffffffff16565b5061272f565b63ffffffff8167ffffffffffffffff16116126ee576126c7601a60058460ff16901b1784612a3590919063ffffffff16565b506126e88167ffffffffffffffff16600485612a559092919063ffffffff16565b5061272e565b61270b601b60058460ff16901b1784612a3590919063ffffffff16565b5061272c8167ffffffffffffffff16600885612a559092919063ffffffff16565b505b5b5b5b505050565b61273e612e16565b61275083846000015151848551612a77565b905092915050565b61277660036005600660ff16901b1783612a3590919063ffffffff16565b506127cb82827fffffffffffffffffffffffffffffffffffffffffffffffffffffffffffffffff6127a79190613dbf565b6040516020016127b79190613a00565b604051602081830303815290604052612b66565b5050565b6127ed60026005600660ff16901b1783612a3590919063ffffffff16565b5061281782826040516020016128039190613a00565b604051602081830303815290604052612b66565b5050565b600030846040516020016128309291906135b8565b604051602081830303815290604052805190602001209050846006600083815260200190815260200160002060006101000a81548173ffffffffffffffffffffffffffffffffffffffff021916908373ffffffffffffffffffffffffffffffffffffffff160217905550807fb5e6e01e79f91267dc17b4e6314d5d4d03593d2ceee0fbb452b750bd70ea5af960405160405180910390a2600360009054906101000a900473ffffffffffffffffffffffffffffffffffffffff1673ffffffffffffffffffffffffffffffffffffffff16634000aea08685856040518463ffffffff1660e01b815260040161292693929190613734565b602060405180830381600087803b15801561294057600080fd5b505af1158015612954573d6000803e3d6000fd5b505050506040513d601f19601f820116820180604052508101906129789190612f93565b6129b7576040517f08c379a00000000000000000000000000000000000000000000000000000000081526004016129ae90613920565b60405180910390fd5b949350505050565b60608315612a2257600083511415612a1a576129da85612b8b565b612a19576040517f08c379a0000000000000000000000000000000000000000000000000000000008152600401612a10906139a0565b60405180910390fd5b5b829050612a2d565b612a2c8383612bae565b5b949350505050565b612a3d612e16565b612a4d8384600001515184612bfe565b905092915050565b612a5d612e16565b612a6e848560000151518585612c55565b90509392505050565b612a7f612e16565b8251821115612a8d57600080fd5b84602001518285612a9e9190613b6d565b1115612ad357612ad2856002612ac388602001518887612abe9190613b6d565b612ce3565b612acd9190613d65565b612cff565b5b600080865180518760208301019350808887011115612af25787860182525b60208701925050505b60208410612b395780518252602082612b149190613b6d565b9150602081612b239190613b6d565b9050602084612b329190613e53565b9350612afb565b60006001856020036101000a03905080198251168184511681811785525050508692505050949350505050565b612b7382600283516125b1565b612b86818361273690919063ffffffff16565b505050565b6000808273ffffffffffffffffffffffffffffffffffffffff163b119050919050565b600082511115612bc15781518083602001fd5b806040517f08c379a0000000000000000000000000000000000000000000000000000000008152600401612bf591906137c4565b60405180910390fd5b612c06612e16565b83602001518310612c2c57612c2b8460028660200151612c269190613d65565b612cff565b5b8351805160208583010184815381861415612c48576001820183525b5050508390509392505050565b612c5d612e16565b84602001518483612c6e9190613b6d565b1115612c9657612c958560028685612c869190613b6d565b612c909190613d65565b612cff565b5b6000600183610100612ca89190613c47565b612cb29190613e53565b90508551838682010185831982511617815281518588011115612cd55784870182525b505085915050949350505050565b600081831115612cf557829050612cf9565b8190505b92915050565b600082600001519050612d128383612547565b50612d1d8382612736565b50505050565b828054612d2f90614025565b90600052602060002090601f016020900481019282612d515760008555612d98565b82601f10612d6a57805160ff1916838001178555612d98565b82800160010185558215612d98579182015b82811115612d97578251825591602001919060010190612d7c565b5b509050612da59190612e30565b5090565b6040518060a0016040528060008019168152602001600073ffffffffffffffffffffffffffffffffffffffff16815260200160007bffffffffffffffffffffffffffffffffffffffffffffffffffffffff1916815260200160008152602001612e10612e16565b81525090565b604051806040016040528060608152602001600081525090565b5b80821115612e49576000816000905550600101612e31565b5090565b6000612e60612e5b84613ade565b613ab9565b905082815260208101848484011115612e7c57612e7b6141ec565b5b612e87848285613fe3565b509392505050565b600081359050612e9e8161456c565b92915050565b600081519050612eb381614583565b92915050565b600081359050612ec88161459a565b92915050565b600082601f830112612ee357612ee26141e7565b5b8135612ef3848260208601612e4d565b91505092915050565b600081359050612f0b816145b1565b92915050565b600081519050612f20816145b1565b92915050565b600060208284031215612f3c57612f3b6141f6565b5b6000612f4a84828501612e8f565b91505092915050565b60008060408385031215612f6a57612f696141f6565b5b6000612f7885828601612e8f565b9250506020612f8985828601612efc565b9150509250929050565b600060208284031215612fa957612fa86141f6565b5b6000612fb784828501612ea4565b91505092915050565b600060208284031215612fd657612fd56141f6565b5b6000612fe484828501612eb9565b91505092915050565b60008060408385031215613004576130036141f6565b5b600061301285828601612eb9565b925050602061302385828601612efc565b9150509250929050565b600060208284031215613043576130426141f6565b5b600082013567ffffffffffffffff811115613061576130606141f1565b5b61306d84828501612ece565b91505092915050565b60008060008060008060c08789031215613093576130926141f6565b5b600087013567ffffffffffffffff8111156130b1576130b06141f1565b5b6130bd89828a01612ece565b965050602087013567ffffffffffffffff8111156130de576130dd6141f1565b5b6130ea89828a01612ece565b955050604087013567ffffffffffffffff81111561310b5761310a6141f1565b5b61311789828a01612ece565b945050606087013567ffffffffffffffff811115613138576131376141f1565b5b61314489828a01612ece565b935050608061315589828a01612efc565b92505060a061316689828a01612efc565b9150509295509295509295565b600060208284031215613189576131886141f6565b5b600061319784828501612efc565b91505092915050565b6000602082840312156131b6576131b56141f6565b5b60006131c484828501612f11565b91505092915050565b600080604083850312156131e4576131e36141f6565b5b60006131f285828601612efc565b925050602083013567ffffffffffffffff811115613213576132126141f1565b5b61321f85828601612ece565b9150509250929050565b61323281613e87565b82525050565b61324181613e99565b82525050565b61325081613ea5565b82525050565b61325f81613eaf565b82525050565b600061327082613b1f565b61327a8185613b35565b935061328a818560208601613ff2565b613293816141fb565b840191505092915050565b60006132a982613b1f565b6132b38185613b46565b93506132c3818560208601613ff2565b80840191505092915050565b6132e06132db82613f89565b614088565b82525050565b6132ef81613f9b565b82525050565b6132fe81613fad565b82525050565b600061330f82613b2a565b6133198185613b51565b9350613329818560208601613ff2565b613332816141fb565b840191505092915050565b600061334882613b2a565b6133528185613b62565b9350613362818560208601613ff2565b80840191505092915050565b600061337b601383613b51565b915061338682614233565b602082019050919050565b600061339e600e83613b51565b91506133a98261425c565b602082019050919050565b60006133c1601083613b51565b91506133cc82614285565b602082019050919050565b60006133e4600c83613b51565b91506133ef826142ae565b602082019050919050565b6000613407602683613b51565b9150613412826142d7565b604082019050919050565b600061342a602383613b51565b915061343582614326565b604082019050919050565b600061344d600d83613b51565b915061345882614375565b602082019050919050565b6000613470602683613b51565b915061347b8261439e565b604082019050919050565b6000613493600583613b62565b915061349e826143ed565b600582019050919050565b60006134b6602083613b51565b91506134c182614416565b602082019050919050565b60006134d9600783613b62565b91506134e48261443f565b600782019050919050565b60006134fc600483613b62565b915061350782614468565b600482019050919050565b600061351f601d83613b51565b915061352a82614491565b602082019050919050565b6000613542602883613b51565b915061354d826144ba565b604082019050919050565b6000613565602a83613b51565b915061357082614509565b604082019050919050565b61358481613f18565b82525050565b61359b61359682613f18565b6140ac565b82525050565b60006135ad828461329e565b915081905092915050565b60006135c482856132cf565b6014820191506135d4828461358a565b6020820191508190509392505050565b60006135f0828761333d565b91506135fb826134ef565b9150613607828661333d565b915061361282613486565b915061361e828561333d565b9150613629826134cc565b9150613635828461333d565b915081905095945050505050565b60006020820190506136586000830184613229565b92915050565b60006060820190506136736000830186613229565b6136806020830185613229565b61368d604083018461357b565b949350505050565b60006040820190506136aa6000830185613229565b6136b7602083018461357b565b9392505050565b600060e0820190506136d3600083018a613229565b6136e0602083018961357b565b6136ed6040830188613247565b6136fa6060830187613256565b613707608083018661357b565b61371460a083018561357b565b81810360c08301526137268184613265565b905098975050505050505050565b60006060820190506137496000830186613229565b613756602083018561357b565b81810360408301526137688184613265565b9050949350505050565b600060208201905061378760008301846132e6565b92915050565b60006060820190506137a260008301866132f5565b6137af602083018561357b565b6137bc6040830184613238565b949350505050565b600060208201905081810360008301526137de8184613304565b905092915050565b6000610100820190508181036000830152613801818b613304565b90508181036020830152613815818a613304565b905081810360408301526138298189613304565b9050818103606083015261383d8188613304565b905061384c608083018761357b565b61385960a083018661357b565b61386660c083018561357b565b61387360e0830184613238565b9998505050505050505050565b600060208201905081810360008301526138998161336e565b9050919050565b600060208201905081810360008301526138b981613391565b9050919050565b600060208201905081810360008301526138d9816133b4565b9050919050565b600060208201905081810360008301526138f9816133d7565b9050919050565b60006020820190508181036000830152613919816133fa565b9050919050565b600060208201905081810360008301526139398161341d565b9050919050565b6000602082019050818103600083015261395981613440565b9050919050565b6000602082019050818103600083015261397981613463565b9050919050565b60006020820190508181036000830152613999816134a9565b9050919050565b600060208201905081810360008301526139b981613512565b9050919050565b600060208201905081810360008301526139d981613535565b9050919050565b600060208201905081810360008301526139f981613558565b9050919050565b6000602082019050613a15600083018461357b565b92915050565b6000606082019050613a30600083018661357b565b613a3d6020830185613247565b8181036040830152613a4f8184613304565b9050949350505050565b6000604082019050613a6e600083018561357b565b613a7b602083018461357b565b9392505050565b6000606082019050613a97600083018661357b565b613aa4602083018561357b565b613ab16040830184613238565b949350505050565b6000613ac3613ad4565b9050613acf8282614057565b919050565b6000604051905090565b600067ffffffffffffffff821115613af957613af86141a3565b5b613b02826141fb565b9050602081019050919050565b6000819050602082019050919050565b600081519050919050565b600081519050919050565b600082825260208201905092915050565b600081905092915050565b600082825260208201905092915050565b600081905092915050565b6000613b7882613f18565b9150613b8383613f18565b9250827fffffffffffffffffffffffffffffffffffffffffffffffffffffffffffffffff03821115613bb857613bb76140e7565b5b828201905092915050565b6000613bce82613f18565b9150613bd983613f18565b925082613be957613be8614116565b5b828204905092915050565b6000808291508390505b6001851115613c3e57808604811115613c1a57613c196140e7565b5b6001851615613c295780820291505b8081029050613c3785614226565b9450613bfe565b94509492505050565b6000613c5282613f18565b9150613c5d83613f18565b9250613c8a7fffffffffffffffffffffffffffffffffffffffffffffffffffffffffffffffff8484613c92565b905092915050565b600082613ca25760019050613d5e565b81613cb05760009050613d5e565b8160018114613cc65760028114613cd057613cff565b6001915050613d5e565b60ff841115613ce257613ce16140e7565b5b8360020a915084821115613cf957613cf86140e7565b5b50613d5e565b5060208310610133831016604e8410600b8410161715613d345782820a905083811115613d2f57613d2e6140e7565b5b613d5e565b613d418484846001613bf4565b92509050818404811115613d5857613d576140e7565b5b81810290505b9392505050565b6000613d7082613f18565b9150613d7b83613f18565b9250817fffffffffffffffffffffffffffffffffffffffffffffffffffffffffffffffff0483118215151615613db457613db36140e7565b5b828202905092915050565b6000613dca82613eee565b9150613dd583613eee565b9250827f800000000000000000000000000000000000000000000000000000000000000001821260008412151615613e1057613e0f6140e7565b5b827f7fffffffffffffffffffffffffffffffffffffffffffffffffffffffffffffff018213600084121615613e4857613e476140e7565b5b828203905092915050565b6000613e5e82613f18565b9150613e6983613f18565b925082821015613e7c57613e7b6140e7565b5b828203905092915050565b6000613e9282613ef8565b9050919050565b60008115159050919050565b6000819050919050565b60007fffffffff0000000000000000000000000000000000000000000000000000000082169050919050565b6000819050613ee982614558565b919050565b6000819050919050565b600073ffffffffffffffffffffffffffffffffffffffff82169050919050565b6000819050919050565b6000613f2d82613b1f565b82613f3784613b0f565b9050613f42816141d2565b92506020821015613f8257613f7d7fffffffffffffffffffffffffffffffffffffffffffffffffffffffffffffffff83602003600802614219565b831692505b5050919050565b6000613f9482613fbf565b9050919050565b6000613fa682613fbf565b9050919050565b6000613fb882613edb565b9050919050565b6000613fca82613fd1565b9050919050565b6000613fdc82613ef8565b9050919050565b82818337600083830152505050565b60005b83811015614010578082015181840152602081019050613ff5565b8381111561401f576000848401525b50505050565b6000600282049050600182168061403d57607f821691505b6020821081141561405157614050614174565b5b50919050565b614060826141fb565b810181811067ffffffffffffffff8211171561407f5761407e6141a3565b5b80604052505050565b60006140938261409a565b9050919050565b60006140a58261420c565b9050919050565b6000819050919050565b60006140c182613f18565b91506140cc83613f18565b9250826140dc576140db614116565b5b828206905092915050565b7f4e487b7100000000000000000000000000000000000000000000000000000000600052601160045260246000fd5b7f4e487b7100000000000000000000000000000000000000000000000000000000600052601260045260246000fd5b7f4e487b7100000000000000000000000000000000000000000000000000000000600052602160045260246000fd5b7f4e487b7100000000000000000000000000000000000000000000000000000000600052602260045260246000fd5b7f4e487b7100000000000000000000000000000000000000000000000000000000600052604160045260246000fd5b60006141de8251613ea5565b80915050919050565b600080fd5b600080fd5b600080fd5b600080fd5b6000601f19601f8301169050919050565b60008160601b9050919050565b600082821b905092915050565b60008160011c9050919050565b7f696e73756666696369656e742066756e64732100000000000000000000000000600082015250565b7f706f6c6963792065786973747321000000000000000000000000000000000000600082015250565b7f616c726561647920636c61696d65642100000000000000000000000000000000600082015250565b7f7a65726f20616d6f756e74210000000000000000000000000000000000000000600082015250565b7f4f776e61626c653a206e6577206f776e657220697320746865207a65726f206160008201527f6464726573730000000000000000000000000000000000000000000000000000602082015250565b7f756e61626c6520746f207472616e73666572416e6443616c6c20746f206f726160008201527f636c650000000000000000000000000000000000000000000000000000000000602082015250565b7f636c61696d206578697374732100000000000000000000000000000000000000600082015250565b7f416464726573733a20696e73756666696369656e742062616c616e636520666f60008201527f722063616c6c0000000000000000000000000000000000000000000000000000602082015250565b7f266c6f6e3d000000000000000000000000000000000000000000000000000000600082015250565b7f4f776e61626c653a2063616c6c6572206973206e6f7420746865206f776e6572600082015250565b7f2661707069643d00000000000000000000000000000000000000000000000000600082015250565b7f6c61743d00000000000000000000000000000000000000000000000000000000600082015250565b7f416464726573733a2063616c6c20746f206e6f6e2d636f6e7472616374000000600082015250565b7f536f75726365206d75737420626520746865206f7261636c65206f662074686560008201527f2072657175657374000000000000000000000000000000000000000000000000602082015250565b7f5361666545524332303a204552433230206f7065726174696f6e20646964206e60008201527f6f74207375636365656400000000000000000000000000000000000000000000602082015250565b6002811061456957614568614145565b5b50565b61457581613e87565b811461458057600080fd5b50565b61458c81613e99565b811461459757600080fd5b50565b6145a381613ea5565b81146145ae57600080fd5b50565b6145ba81613f18565b81146145c557600080fd5b5056fe68747470733a2f2f6170692e6f70656e776561746865726d61702e6f72672f646174612f322e352f776561746865723f5b22636f6e74656e742d74797065222c20226170706c69636174696f6e2f6a736f6e222c20227365742d636f6f6b6965222c20227369643d3134413532225da264697066735822122071a9dae55901879874c93b436fe2cac71572098beed8cfe8f308debab1c5c38264736f6c63430008070033",
  "linkReferences": {},
  "deployedLinkReferences": {}
}